:1000000007C6000039C6000037C6000035C600002C
:1000100033C6000031C600002FC600002DC6000008
:100020002BC6000029C6000027C6000025C6000018
:1000300023C6000021C600001FC600001DC6000028
:100040001BC6000019C600000C94BB1815C60000A2
:1000500013C600000C9438180C9432180C943E18F7
:100060000BC6000009C6000007C6000005C6000058
:1000700003C6000001C600000C941618FDC5000060
:10008000FBC50000F9C50000F7C50000F5C500007C
:10009000000103070F1F3F7F0080C0E0F0F8FCFE67
:1000A00000000000003E5B4F5B3E3E6B4F6B3E1C12
:1000B0003E7C3E1C183C7E3C181C577D571C1C5E29
:1000C0007F5E1C00183C1800FFE7C3E7FF00182400
:1000D0001800FFE7DBE7FF30483A060E26297929AA
:1000E00026407F050507407F05253F5A3CE73C5ADF
:1000F0007F3E1C1C08081C1C3E7F14227F22145FBC
:100100005F005F5F06097F017F006689956A606016
:1001100060606094A2FFA29408047E040810207E10
:10012000201008082A1C08081C2A08081E10101095
:10013000100C1E0C1E0C30383E3830060E3E0E06DB
:10014000000000000000005F00000007000700142E
:100150007F147F14242A7F2A1223130864623649ED
:100160005620500008070300001C224100004122D5
:100170001C002A1C7F1C2A08083E080800807030DA
:100180000008080808080000606000201008040249
:100190003E5149453E00427F40007249494946214F
:1001A00041494D331814127F1027454545393C4AC3
:1001B00049493141211109073649494936464949DA
:1001C000291E000014000000403400000008142222
:1001D0004114141414140041221408020159090690
:1001E0003E415D594E7C1211127C7F494949363E91
:1001F000414141227F4141413E7F494949417F0977
:100200000909013E414151737F0808087F00417F81
:1002100041002040413F017F081422417F4040407F
:10022000407F021C027F7F0408107F3E4141413E17
:100230007F090909063E4151215E7F091929462699
:100240004949493203017F01033F4040403F1F209D
:1002500040201F3F4038403F631408146303047874
:1002600004036159494D43007F4141410204081094
:1002700020004141417F04020102044040404040CF
:10028000000307080020545478407F28444438383D
:1002900044444428384444287F38545454180008AF
:1002A0007E090218A4A49C787F0804047800447D89
:1002B00040002040403D007F1028440000417F4026
:1002C000007C047804787C0804047838444444387A
:1002D000FC1824241818242418FC7C08040408485A
:1002E0005454542404043F44243C4040207C1C20AB
:1002F00040201C3C4030403C44281028444C909006
:10030000907C4464544C440008364100000077005F
:1003100000004136080002010204023C2623263C6C
:100320001EA1A161123A4040207A385454555921F7
:1003300055557941225454784221555478402054DF
:100340005579400C1E52721239555555593954542D
:10035000545939555454580000457C410002457D9C
:10036000420001457C407D1211127DF0282528F0C5
:100370007C545545002054547C547C0A097F4932F2
:10038000494949323A4444443A324A4848303A4169
:1003900041217A3A42402078009DA0A07D3D424212
:1003A000423D3D4040403D3C24FF2424487E49439B
:1003B000662B2FFC2F2BFF0929F620C0887E09030E
:1003C00020545479410000447D413048484A323835
:1003D0004040227A007A0A0A727D0D19317D262961
:1003E000292F28262929292630484D402038080859
:1003F000080808080808382F10C8ACBA2F1028348D
:10040000FA00007B000008142A142222142A14087F
:100410005500550055AA55AA55AAFF55FF55FF008E
:100420000000FF00101010FF00141414FF00101043
:10043000FF00FF1010F010F0141414FC001414F757
:1004400000FF0000FF00FF1414F404FC1414171044
:100450001F10101F101F1414141F00101010F00094
:100460000000001F101010101F10101010F01000CE
:100470000000FF101010101010101010FF100000DE
:1004800000FF140000FF00FF00001F10170000FC19
:1004900004F414141710171414F404F40000FF00EB
:1004A000F714141414141414F700F7141414171474
:1004B00010101F101F141414F4141010F010F0007A
:1004C000001F101F0000001F14000000FC1400009B
:1004D000F010F01010FF10FF141414FF141010107F
:1004E0001F00000000F010FFFFFFFFFFF0F0F0F032
:1004F000F0FFFFFF0000000000FFFF0F0F0F0F0FC6
:100500003844443844FC4A4A4A347E020206060211
:100510007E027E0263554941633844443C04407E78
:10052000201E2006027E020299A5E7A5991C2A49F1
:100530002A1C4C7201724C304A4D4D30304878487C
:1005400030BC625A463D3E494949007E0101017E68
:100550002A2A2A2A2A44445F444440514A444040BB
:10056000444A51400000FF0103E080FF00000808FA
:100570006B6B083612362436060F090F060000187A
:10058000180000001010003040FF0101001F0101A1
:100590001E00191D1712003C3C3C3C0000000000EE
:1005A000DB40A4A62EAF2000A1C8D300408DAED55D
:1005B00080A80000600000000000000000000000B3
:1005C000000000E00000000000000000000000004B
:1005D0000001E0000000000000000000000000003A
:1005E00001F0000000000000000000000000000317
:1005F000F00000000000000000000000000007F014
:100600000000000000000000000000000007F800EB
:100610000000000000000000000000000FF80000D3
:100620000003C0007E000001E0007F0FF800000022
:1006300003C000FE000001E000FFEFF8000000032F
:10064000C000FE000001E000FFFFF800000003C052
:1006500000F00000000F007FFE7FC0000003C0001C
:10066000F00000000F003FFE7FF83FF1FBCFFCFEE3
:10067000F3BC3DEFE01FFE7FFF7FFBFFDFFEFEFFD1
:10068000BC3DEFE01FC6FFFF7FFBFFDFFEFEFFBCB0
:100690003DEFE00FE3C7FE787BC3DE1EF0FFBC3DFD
:1006A000EF0007FF87FC787BC3DE1EF0F83C3DEFD0
:1006B0000001FFFFF0007BC3C01EF0F03C3DEF00E7
:1006C00001F37FE03FFBC3CFFEF0F03C3DEF0003C2
:1006D000E33F807FFBC3DFFEF0F03C3DEF0007E728
:1006E0003C00787BC3DE1EF0F03C3DEF0007FFBE10
:1006F00000787BC3DE1EF0F03C3DEF0007FFFE00FC
:10070000787BC3DE1EF0F03C3DEF000FFFFE007F64
:10071000FBFFDFFEF0F03FFDEFE00FFFFF007FFB90
:10072000FFDFFEF0F03FFDEFE00FF9FF003E79F94B
:10073000CF9EF0F01F3DE7E01FF1FF00000000003A
:10074000000000000000001F80FF007FFFFFFFFF90
:10075000FFFFFFFFFFE01C007F007FFFFFFFFEB4F5
:100760006D888D18E000001F007FFFFFFFFE95AD34
:100770007DB577E000000F007FFFFFFFFEA5AD9D78
:100780008D19E0000006007FFFFFFFFEB5ADEDB55F
:100790007EE000000000000180000000000000007A
:1007A0000000038000000000000000000007C000FF
:1007B000000000000000000007C000000000000072
:1007C0000000000FC00000000000000000001FE05B
:1007D0000000000000000000001FE000000000001A
:1007E000000000003FE00000000000000000003FAB
:1007F000F00000000000000000007FF0000000009A
:100800000000001FF87FF0000000000000003FFE25
:100810007FF0000000000000003FFF7FF0000000BC
:10082000000000001FFFFBE0000000000000000FC0
:10083000FFF9FFC00000000000000FFFF9FFF80003
:10084000000000000007FFF1FFFF000000000000B3
:1008500003FC73FFFF80000000000001FE3FFFFF6C
:1008600080000000000000FF1E0FFF0000000000DD
:1008700000007FFE1FFC000000000000003FFFFFA3
:10088000F8000000000000000FDFFFE000000000A3
:100890000000001F19FFC0000000000000003F3CE6
:1008A000FF00000000000000007E7CF80000000057
:1008B000000000007FFE7C0000000000000000FF40
:1008C000FFFC0000000000000000FFFFFE00000031
:1008D0000000000000FFFFFE00000000000000011B
:1008E000FFEFFE0000000000000001FFCFFE00004F
:1008F000000000000003FF07FE00000000000000F1
:1009000003FC07FE0000000000000003F003FE00EF
:10091000000000000000018000FE00000000000058
:10092000000000007E000000000000000000003E0B
:10093000000000000000000000000C0000000000AB
:1009400000078000FC000003C0000000078001FCDD
:10095000000003C0000000078001FC000003C0008D
:100960000000078001E00000001E00000007800179
:10097000E00000001E007FE3F79FF9FDE7787BDFD2
:10098000C0FFF7FFBFFDFDFF787BDFC0FFF7FFBFB4
:10099000FDFDFF787BDFC0F0F787BC3DE1FF787B92
:1009A000DE00F0F787BC3DE1F0787BDE0000F787E2
:1009B000803DE1E0787BDE007FF7879FFDE1E07816
:1009C0007BDE00FFF787BFFDE1E0787BDE00F0F71C
:1009D00087BC3DE1E0787BDE00F0F787BC3DE1E0DD
:1009E000787BDE00F0F787BC3DE1E0787BDE00FF3E
:1009F000F7FFBFFDE1E07FFBDFC0FFF7FFBFFDE1D9
:100A0000E07FFBDFC07CF3F39F3DE1E03E7BCFC0A6
:100A10000000000000000000000000FFFFFFFFFFDB
:100A2000FFFFFFFFFFC0FFFFFFFFFD68DB111A3173
:100A3000C0FFFFFFFFFD2B5AFB6AEFC0FFFFFFFF68
:100A4000FD4B5B3B1A33C0FFFFFFFFFD6B5BDB6AB7
:100A5000FDC05353443133303620616C6C6F636199
:100A600074696F6E206661696C6564000D0A2041CF
:100A70005652436F726520746573742076616C6999
:100A8000646174696F6E2073756974650D0A002264
:100A900000FF2100FFFFFFFFFFFFF0FFFFFFFFFF51
:100AA000FFF0FFFFFFFFFFFFF0FFFFFFFFFFFFF083
:100AB000FFFFFFFFFFFFF0FFFFFE03FFFFF0FFFF61
:100AC000F0003FFFF0FFFF80000E1FF0FFFE000070
:100AD000061FF0FFFC0000021FF0FFF00000023FC5
:100AE000F0FFE0000001FFF0FFC0000000FFF0FF9A
:100AF000C0000000FFF0FF801000207FF0FF003CEE
:100B000000707FF0FF007C00F83FF0FE007E01F8EF
:100B10001FF0FE00FF01FC1FF0FC01FF03FE0FF0C1
:100B2000FC00FF83FE07F0FC00FFC1FF07F0FC00A4
:100B30007FC1FF03F0F8007FE0FF81F0F8083FF08D
:100B4000FFC1F0F81C1FF07FC0F0F83E1FF83FE037
:100B500070F83E0FF83FF070F87F07FC1FF070FC54
:100B6000FF83FE0FF870FDFF83FE0FFCF0FFFF0117
:100B7000FF07FCF0FFFF01FF03FFF0FFFE00FE0395
:100B8000FFF0FFFC00FC01FFF0FFF8007800FFF031
:100B9000FFF8003800FFF0FFF00010007FF0FFE0EA
:100BA0000000003FF0FFE00000003FF0FFF0000019
:100BB000003FF0FFF80000007FF0FFFE000001FFA3
:100BC000F0FFFF800007FFF0FFFFE0001FFFF0FFD6
:100BD000FFFC00FFFFF0FFFFFFFFFFFFF0FFFFFF45
:100BE000FFFFFFF0FFFFFFFFFFFFF0FFFFFFFFFF33
:100BF000FFF0FFFFFFFFFFFFF0000002010406020D
:100C000002FF03101204090B050007008519AA2230
:100C100011241FBECFEFCDBFDFE7DEBF80914000C4
:100C200080934000811105C098ED21E094BF20938E
:100C300041008CBB13E6A0E0B0E6E0E0F0E502C0C6
:100C400005900D92AA30B107D9F725E6AAE0B3E6E0
:100C500001C01D92AD3AB207E1F716E0C7E0D6E059
:100C600004C02197FE010E949E26C630D107C9F715
:100C70000E94A61A0C94F427C3C90000809344096B
:100C80008091430987FFFCCF80914409089508951E
:100C900001C00895FEDF8230910550F09C01220FC3
:100CA000331F0397820F931F019700C000C0E1F725
:100CB00008959FB7F894E0912A0BF0912B0B809147
:100CC000260B2091936330919463409195635091EA
:100CD00096639FBF80FF08C0CF018827892B21F42E
:100CE0002F5F3F4F4F4F5F4F0F011694079416949D
:100CF00007941694079416940794F0011694079499
:100D0000E00DF11D16940794102C169401181694FA
:100D1000010C169401181694010C169401181694DF
:100D20001694010C1124E019F109A8EEB3E00E9419
:100D300018266E0F7F1F811D911D08950F931F931D
:100D4000CF93DF93CDB7DEB72797CDBFDEBF8091BE
:100D50003D6490913E6489839A838091436490912D
:100D60004464892B09F467C0809141648C3108F098
:100D700062C09FDF0091496410914A6420914B64E6
:100D800030914C64AB01BC01401B510B620B730BE7
:100D900080913F6490914064B0E0A0E0481759070B
:100DA0006A077B0730F3F894A0914364B0914464E0
:100DB000FD0131968C918F83A0914D64B0914E646A
:100DC0009C9180914F64982B9E839C918095892360
:100DD0008D838D818C8388E08B835E816D814F81D3
:100DE0003B812C8189819A815C9347FD252F3A951F
:100DF00000C000C02C93262F00C041F0441F6C930C
:100E000001D0F2CF00C000C0000008956C9338E01C
:100E10004191FADF019741F74F833B832C8389830C
:100E20009A83789446DF6093496470934A64809310
:100E30004B6490934C642796CDBFDEBFDF91CF917A
:100E40001F910F910895CF92DF92EF92FF92CF936F
:100E5000DF936B017C012DDFEB012BDF6C1B7D0B26
:100E6000683E7340D0F381E0C81AD108E108F10868
:100E7000C851DC4FC114D104E104F10471F7DF91D2
:100E8000CF91FF90EF90DF90CF9008952FB7F89417
:100E90006091936370919463809195639091966350
:100EA0002FBF089587FD05C08C30E8F08431B8F479
:100EB0008C50909100069F7D9093000690E4909353
:100EC00009068093080681E080930A0680910D064A
:100ED00080FFFCCF809110069091110608958A3111
:100EE00030F48450E6CF823010F08C5EE2CF8FEF8A
:100EF000E0CFAF92BF92CF92DF92EF92FF920F932B
:100F00001F93CF93DF936C017B018B01040F151F9F
:100F1000EB015E01AE18BF08C017D10759F0699107
:100F2000D601ED91FC910190F081E02DC60109956B
:100F3000892B79F7C501DF91CF911F910F91FF9018
:100F4000EF90DF90CF90BF90AF9008958A3059F422
:100F500080910006837F8093000680910006846064
:100F600080930006089580910006837FF9CFE09179
:100F70000B63F0910C63099520911663223094F075
:100F8000622F022E000C770B0E948A26CB012032A2
:100F900019F4880F991F0895203421F4880F991FA0
:100FA000880F991F0895FC0151894289252F30E04F
:100FB000842F90E0821B930B541710F0CF96089566
:100FC00001970895FC0197858089981761F0A089A1
:100FD000AE0FBF2FB11D53968C9190899F5F9F7369
:100FE000908B90E008958FEF9FEF0895FC01978517
:100FF0008089981731F08089E80FF11D838990E08E
:1010000008958FEF9FEF0895FC0197852089892F20
:1010100090E0805C9F4F821B91098F739927089500
:10102000FC010FB607FE04C0809111018823A9F0CE
:10103000A085B18514968C91149785FF0EC0918977
:101040008289981307C015968C9115978F7D1596F8
:101050008C930895E8940C944B1808950F931F9364
:10106000CF93DF93EC018E8581608E8799898A8981
:1010700098130BC0E885F985848185FF06C08E85AD
:1010800081FD0DC080E4848312C0062F19891F5F83
:101090001F738A89811315C0CE01C2DFFACF858103
:1010A0008F77806490E49483E885F9858583E8856B
:1010B000F985628381E090E0DF91CF911F910F91DC
:1010C0000895E989EC0FFD2FF11DED5AFF4F0083C4
:1010D000198B8E85E885F98581FF09C085818F7719
:1010E000806690E49483E885F9858583E3CF8581E4
:1010F0008062FBCFCF93DF93EC018E85882359F07C
:10110000E885F985858185FD03C0848186FD03C05E
:10111000CE0186DFF5CFDF91CF910895CF92DF9298
:10112000EF92FF92CF93DF93EC016A017B0160E0C5
:101130007BE187EB90E0A70196010E94592680ECA5
:10114000C81687E2D80689E0E806F10438F028508E
:1011500031092230310564F422E00AC080E8C81663
:101160008AE1D80686E0E806F10410F12950310939
:10117000E881F9818681821799F093811382268311
:1011800081E8C8168AE1D80686E0E806F104D8F0BE
:10119000808182608083938390FF02C081E0858399
:1011A00080E0DF91CF91FF90EF90DF90CF90089596
:1011B0002C503109223031057CF22F3F3105C1F22C
:1011C000BCF22FEFD5CF80818D7FE4CFCF93DF931B
:1011D000DC01ED91FC9111978581837009F443C086
:1011E000838180FF40C030E020E090E04581842F83
:1011F00083702F5F3F4F213C5DE5350750F0823013
:1012000071F1813071F184E093E09483DF91CF91AB
:10121000089543FF04C088E0858382E1F5CF8130E3
:1012200041F414968C9114978E7F878330E020E0F0
:10123000DDCF8230D9F646FFD9CF44FF04C09923D1
:1012400019F383E0E1CF15968C911597981768F400
:10125000ED01C90FD11D8D8580879F5FE7CF85E0A8
:10126000D3CF81E1D1CF80E1D1CF80E0662371F28D
:10127000CBCFDC011896ED91FC919381818513828F
:101280001186938391E09583818708959C01295667
:101290003F4FDC011F96EC911F971E968C91E8172B
:1012A00030F4E20FF32FF11D808190E008958FEF6D
:1012B0009FEF0895FC01DC01A956BF4F97858685F5
:1012C000981740F4A90FB11D2C919F5F9787822F2B
:1012D00090E008958FEF9FEF0895FC018685978534
:1012E000891B990B0895FC01A585A23858F4A80F15
:1012F000B92FB11D55966C9385858F5F858781E0E9
:1013000090E0089590E080E00895BF92CF92DF9240
:10131000EF92FF920F931F93CF93DF937C016A01AB
:10132000B62EEB010C2F0B1910E00C151D0528F43F
:101330006991C701D8DF892BA9F7C801DF91CF9147
:101340001F910F91FF90EF90DF90CF90BF90089585
:10135000AF92BF92CF92DF92EF92FF920F931F93C3
:10136000CF93DF93EC0188819981892B09F0A2C08A
:101370008885998511E0892B09F010E8AA24A394A7
:10138000862F812309F0A12C062F2C813D814E81CF
:101390005F8160E271EA87E090E00E945926D22ED8
:1013A000B02EC12CE22EF12CDD2011F0C70170DC33
:1013B0008A858D7F843009F04DC08D858F3F89F0FF
:1013C000802F812391E009F490E09A1551F0EF8588
:1013D000F8899F898823C1F18081982B9083AA2462
:1013E000A394E989FA898081998D892B8083DD20F6
:1013F00011F0C7014DDC8E858F3F39F0EB89FC89F8
:101400008081988D892309F0C12AE989FA89908120
:10141000898D8095892380838E858F3F09F0BC2C30
:1014200088859985892B09F043C0110F1111BCCF14
:101430008B2DDF91CF911F910F91FF90EF90DF9057
:10144000CF90BF90AF90089580819095982390831E
:10145000A12CC7CFE989FA898081998D892B808356
:10146000DD2011F0C70114DC8D858F3F49F0EF8539
:10147000F8898F89902F9123B9F09081892B8083EF
:10148000E989FA899081898D8095892380838E8569
:101490008F3F09F4C1CFEB89FC898081988D892326
:1014A00009F4BACFC12AB8CF908180958923E7CFBC
:1014B0001695BCCF862FDF91CF911F910F91FF9092
:1014C000EF90DF90CF90BF90AF90D7CBFF920F936C
:1014D0001F93CF93DF93EC018A01F22E89819A81C9
:1014E000DC01ED91FC910280F381E02D0995081754
:1014F000190739F489819A816F2D089667DE91E08A
:10150000811190E0892FDF91CF911F910F91FF9072
:1015100008950895FC016370668B8481958126810E
:101520003781613039F0633029F0808791872287D5
:1015300033870895208731878287938708952F9274
:101540003F924F925F926F927F928F929F92AF9253
:10155000BF92CF92DF92EF92FF920F931F93CF93A0
:10156000DF93CDB7DEB76A97CDBFDEBF898F9A8F85
:1015700069837A834A01D22E0F8318873701BC2CE6
:10158000DC0159962D913C915A972115310509F0AE
:1015900012C118968D919C911997681779070CF0D4
:1015A000D4C11A968D919C91481759070CF0CDC162
:1015B0004C2C512CB6E0CB9E600D711D11246B8715
:1015C0007C87161617060CF0C0C1EA2DF0E0E987FB
:1015D000FA8793E0EE0FFF1F9A95E1F7EF87F88BFC
:1015E000CF01840F951F181619060CF0AEC1A98DF6
:1015F000BA8D58968C91811104C0BFEABD1508F4CC
:10160000D394A98DBA8DED91FC9111970284F38545
:10161000E02DCD010995B5E0DB9EC0011124E981E3
:10162000FA81EB83FC83312C212C9C0120563F4F07
:101630002F8B388F4A2D50E04D8B5E8BEF89F88DC4
:10164000E20DF31D44918D829E82D12CC12C6981C3
:101650007A81620D731D698B7A8B842F90E08B8B5E
:101660009C8BE98DFA8DA081B18140FF7FC0F1E0B4
:10167000BF126CC0AF126AC01C96ED91FC912F8115
:101680003885A4014C0D5D1D69897A89898D9A8DF3
:101690000995EB89FC89F595E7954E2F5FEFC51A03
:1016A000D50A6D817E818D899E89680F791F6D8332
:1016B0007E8398E0C916D10481F6AFEF2A1A3A0A60
:1016C000EB81FC81E40DF51DEB83FC83F5E02F1627
:1016D000310409F0B3CF2F81388526153705B9F0CD
:1016E000A98DBA8DED91FC91B1E0BB1254C0AB1243
:1016F00052C069817A816B5F7F4F0088F189E02D4C
:10170000830128E030E0A401898D9A8D0995A98D87
:10171000BA8DED91FC9111970688F789E02DCD01E6
:101720006A96CDBFDEBFDF91CF911F910F91FF90E1
:10173000EF90DF90CF90BF90AF909F908F907F9071
:101740006F905F904F903F902F9009941E96ED916F
:10175000FC91EF80F88409851A8592014D815E81A4
:101760006B817C81898D9A8D099593CF2F813885E6
:101770002615370509F48DCF31E0B31207C0A31247
:1017800005C01C96ED91FC9193017BCF1E96ED91C7
:10179000FC917301E0CF6B857C8564197509068423
:1017A000F785E02D73010F8518899201A401898DB9
:1017B0009A8D0995ACCFF901349694913297459161
:1017C0005491D91AB7E0DB9E400D511D1124F90147
:1017D000259134912B8B3C8BFA0125903490FA01A2
:1017E0003296749031963491398B3296649031965A
:1017F000449041E04C1518F04A1508F07FC0662D62
:10180000062C000C770B6B837C83842D042C000C3E
:10181000990B8D839E83A98DBA8DED91FC911197C3
:101820000284F385E02DCD010995512CD12CC12CDA
:10183000EA2DF0E0E987FA872B2D30E02B873C87F3
:10184000A401440D511D47FC5A954F8B588F698157
:101850007A81660D711D67FC7A956D877E8779891F
:10186000C71608F054CF2C2D30E04D815E81420F19
:10187000531FA985BA854A9FC0014B9F900D5A9F5F
:10188000900D1124FC01E80DF91DEF87F88B852DD3
:10189000612C4F89588D420F531F4D8B5E8B6714FF
:1018A00008F050C044244394480E877041F4C101AD
:1018B0000196EB89FC89E20DF31DD4901C01D7FE43
:1018C00019C0A98DBA8DED91FC91662D70E0B1E043
:1018D000BB1219C0AB1217C02D853E85620F731F56
:1018E0000484F585E02D2F8138854D895E89898DA9
:1018F0009A8D0995DD0C6394842DD1CF1D821E82B3
:101900001B821C8288CF4B815C81640F751FAB8565
:10191000BC856A9FC0016B9F900D7A9F900D11242A
:1019200069817A81680F791F0684F785E02DEF8041
:10193000F88409851A859D014F855889898D9A8D6E
:101940000995D8CF570CC3948ACF6A96CDBFDEBF16
:10195000DF91CF911F910F91FF90EF90DF90CF908B
:10196000BF90AF909F908F907F906F905F904F90BF
:101970003F902F9008958F929F92AF92CF92EF92C7
:10198000FF920F931F93CF93DF93EC01262F898D46
:101990009A8D009709F050C06A30D1F41C861D86DC
:1019A0008D8948E0849F900111248E859F85820F48
:1019B000931F8E879F8781E090E0DF91CF911F91E9
:1019C0000F91FF90EF90CF90AF909F908F900895E0
:1019D0006D3089F3CC88AD888F898823C1F08C85E0
:1019E0009D8536E0C39E800D911D11244885598543
:1019F0004817590764F44E855F851C861D8638E0BC
:101A0000A39EC0011124840F951F8E879F87EA88AB
:101A1000FB88088919894E855F856C857D85CE0197
:101A20008EDD2C898C859D8546E0249F800D911D3F
:101A300011248C879D87BFCF6A3069F41C861D8670
:101A4000FC013896E4912D898E859F85E29F800D5B
:101A5000911D1124AECF6D3009F4ADCFFC01349649
:101A60003491631708F4A7CF3296E491E61708F48F
:101A7000A2CFFC01329685909490462F431B342FC1
:101A800047E0349F800C911C1124F401329634916C
:101A90003196E4913323A1F1EE2391F1CC88F40146
:101AA0003596E491AD884F89442301F10E2E000C48
:101AB000FF0BE30FF11DCE9EA001CF9E500D112410
:101AC0006C857D85460F571F688579856417750776
:101AD0006CF44E855F851C861D86FC013896E4916A
:101AE000AE9E400D511D11244E875F87EA88FB880A
:101AF000088919894E855F856C857D85CE011FDD3E
:101B0000F4013496E4912C898C859D85E29F800DAB
:101B1000911D11248ECF6F927F928F929F92AF92E0
:101B2000BF92CF92DF92EF92FF920F931F93CF93CA
:101B3000DF93EC016B015A0139014801E881F98119
:101B40000284F385E02D0995E881F9810288F38903
:101B5000E02D87019301A501B601CE010995A501EC
:101B6000480D591D41505109E881F9810288F389D6
:101B7000E02D9301B601CE010995E881F981008835
:101B8000F189E02D9401A501B601CE010995C60C9D
:101B9000D71CB60161507109E881F9810088F1898B
:101BA000E02D9401A501CE010995E881F98106880F
:101BB000F789E02DCE01DF91CF911F910F91FF901A
:101BC000EF90DF90CF90BF90AF909F908F907F90DD
:101BD0006F9009946F927F928F929F92AF92BF9273
:101BE000CF92DF92EF92FF920F931F93CF93DF93E9
:101BF0005C01EB016A01490138018701DC01ED91CB
:101C0000FC916217730719F5641675062CF0962D72
:101C1000872D3A01C92ED82E9601261937092F5F34
:101C20003F4F048CF58DE02DA301BE01C501099540
:101C3000DF91CF911F910F91FF90EF90DF90CF90A8
:101C4000BF90AF909F908F907F906F9008954615B2
:101C5000570591F42617370724F0892D4B01C22F21
:101C6000D82F9E01281939092F5F3F4F068CF78D19
:101C7000E02DA601B401DACF0284F385E02D0995A9
:101C8000D501ED91FC910488F589E02D8301940143
:101C9000A601BE01C5010995D501ED91FC9106880B
:101CA000F789E02DC501DF91CF911F910F91FF9032
:101CB000EF90DF90CF90BF90AF909F908F907F90EC
:101CC0006F900994EF92FF920F931F93DC011A9685
:101CD0000D911C911B9718962D913C911997ED91A0
:101CE000FC9100A0F1A1E02D7B0150E040E070E00C
:101CF00060E009951F910F91FF90EF9008954F922A
:101D00005F926F927F928F929F92AF92BF92CF928B
:101D1000DF92EF92FF920F931F93CF93DF936C01AB
:101D20002B015A0139014801DC01ED91FC9102843B
:101D3000F385E02D0995E201640C751CD601ED9147
:101D4000FC91C615D7055CF40088F189E02D870168
:101D50009401A501BE01C60109952196EFCF068821
:101D6000F789E02DC601DF91CF911F910F91FF9070
:101D7000EF90DF90CF90BF90AF909F908F907F902B
:101D80006F905F904F9009948F929F92AF92BF9205
:101D9000CF92DF92EF92FF920F931F93CF93DF9337
:101DA000EC015B014A016901E881F9810284F38554
:101DB000E02D099595012C0D3D1D21503109E8813B
:101DC000F9810488F589E02D78018401A401B50129
:101DD000CE010995E881F9810688F789E02DCE01C9
:101DE000DF91CF911F910F91FF90EF90DF90CF90F7
:101DF000BF90AF909F908F9009948F929F92AF92D7
:101E0000BF92CF92DF92EF92FF920F931F93CF93E7
:101E1000DF93EC015B014A0169017801E881F981F6
:101E20000284F385E02D0995C80CD91C8601015068
:101E30001109E881F9810488F589E02D9501A40153
:101E4000B501CE010995E881F9810688F789E02D71
:101E5000CE01DF91CF911F910F91FF90EF90DF9016
:101E6000CF90BF90AF909F908F900994EF92FF9288
:101E70000F931F93DC01ED91FC9100A0F1A1E02DE7
:101E800009951F910F91FF90EF9008950F931F9365
:101E9000DC01ED91FC91068CF78DE02D09951F91E9
:101EA0000F9108950F931F93DC01ED91FC91048C29
:101EB000F58DE02D09951F910F910895DC01ED91AD
:101EC000FC910084F185E02D09943F924F925F923E
:101ED0006F927F928F929F92AF92BF92CF92DF923A
:101EE000EF92FF920F931F93CF93DF9300D000D018
:101EF000CDB7DEB75C013B016A014901280187E0EB
:101F0000480E511C93E0559447949A95E1F7CA0105
:101F10008E0D9F1D89839A83F12CE12C312C1B821D
:101F20001C828B819C8187709927330C892B61F4EB
:101F3000EB81FC8183E0F595E7958A95E1F7EE0D5D
:101F4000FF1DE80DF91D349037FE09C021E030E097
:101F5000A6016B817C81660D771DC501AFDF8B818A
:101F60009C8101968B839C8308171907D1F69FEFFC
:101F7000C91AD90AE40CF51C89819A81C816D906B8
:101F800071F62496CDBFDEBFDF91CF911F910F91E7
:101F9000FF90EF90DF90CF90BF90AF909F908F9089
:101FA0007F906F905F904F903F9008952F923F9257
:101FB0004F925F926F927F928F929F92AF92BF9259
:101FC000CF92DF92EF92FF920F931F93CF93DF9305
:101FD000CDB7DEB72697CDBFDEBF3C016A012D83AA
:101FE0003E83EB82FC825801A41AB50AB7FE03C0F7
:101FF000B194A194B1088D809E80861A970A97FEAD
:1020000003C09194819491088A149B045CF0902FF2
:10201000812F0D811E819D838E839C2D8D2D6B01C3
:10202000692F782F0C151D055CF09D818E816D83C5
:102030007E83692F782F902F812F8601C92ED82E6D
:102040001601201A310A2B012D813E81421A530AB2
:1020500057FE03C0519441945108710137FE03C0EB
:102060003FEFE31AF30AF594E7948D819E8186177A
:1020700097075CF5A1E0B0E0A983BA83C016D1064A
:102080004CF1D301ED91FC910484F585E02D2B8179
:102090003C81A8016D817E818A149B041CF04D81D6
:1020A0005E81B801C3010995E418F508F7FE0AC07E
:1020B0002D813E8189819A81280F391F2D833E838E
:1020C000E20CF31C0F5F1F4FD9CF2FEF3FEF298397
:1020D0003A83D4CF2696CDBFDEBFDF91CF911F913B
:1020E0000F91FF90EF90DF90CF90BF90AF909F90B7
:1020F0008F907F906F905F904F903F902F900895BA
:10210000EF92FF920F931F93CF93DF93EC01EC803C
:10211000FD806E157F050CF070C057FF04C0240FC2
:10212000351F50E040E08E819F81FA01E20FF31FDE
:102130008E179F071CF49C01241B350B12161306E7
:102140000CF05BC0922F842F8695869586958E9D88
:10215000D0018F9DB00D11246A0F7B1FAF8DB8A1E8
:10216000A60FB71F477049F188E0841B482F682FDE
:1021700070E0FB01E856FF4FE491281708F063C0B8
:10218000621B71092FEF30E002C0359527956A95E3
:10219000E2F7E2230130110539F0B0F10230110508
:1021A00061F58C91E82702C08C91E82BEC93941791
:1021B00020F12C813D81A20FB31FE92FE41BE830F1
:1021C00078F00230110521F58E2F9C9190959C930B
:1021D0002C813D81A20FB31F88508830B0F7E77083
:1021E000EE2359F0F0E0E057FF4FE4910130110584
:1021F000F9F010F10230110519F1DF91CF911F9123
:102200000F91FF90EF900895E0958C91E823CECF49
:1022100081E00115110509F480E081959E2F8C93D2
:102220002C813D81A20FB31F98509830C0F7D7CFB3
:102230008C91E82BEC93E1CFE0958C91E823FACFD9
:102240008C91E827F7CF0130110509F4ADCFE0F20A
:102250000230110509F4A5CFAE0DBF1DAECF0F930F
:102260001F93CF93DF9377FF04C0260F371F70E0D3
:1022700060E0DC011496CD91DC91FB01E20FF31FCD
:10228000CE17DF071CF49E01261B370B1216130610
:102290004CF5FA0157FD3796A3E0F595E795AA9519
:1022A000E1F7EC9FD001ED9FB00DFC9FB00D112424
:1022B0006A0F7B1FDC015F96ED91FC91E60FF71F23
:1022C0004770552781E090E001C0880F4A95EAF7F2
:1022D000482F0130110559F0A8F02E0F3F1F023092
:1022E0001105E1F0DF91CF911F910F9108952E0F0D
:1022F0003F1FE217F307B1F38191DF011197842BA0
:102300008C93F7CF80952E0F3F1FE217F30751F301
:102310009191DF01119798239C93F7CFE217F30770
:1023200009F38191DF01119784278C93F7CF0F93E5
:102330001F93FA01DC0156964C9156974230E1F01A
:10234000433091F1413059F514964D915C91DA0189
:10235000AE1BBF0BFD01E21BF30B77FD0AC0DC01D6
:1023600016964D915C91641775071CF4AB01BF0183
:1023700076DF1F910F91089514964D915C91DA01CB
:10238000A61BB70BBD0161507109DC0116964D917A
:102390005C91DA01AE1BBF0BFD01E21BF30B77FD75
:1023A000E8CFAF01ADDEE5CF16964D915C91DA0135
:1023B000A61BB70BBD0161507109CFCF0F931F93BF
:1023C000FA01DC0156964C9156974230A1F0433009
:1023D00081F1413011F514964D915C91DA01AE1BFB
:1023E000BF0BFD013197F7FD03C0AB01BF0188DED4
:1023F0001F910F91089516964D915C91DA01AE1BD5
:10240000BF0BFD013197DC0114964D915C91DA010F
:10241000A61BB70BBD01621B730BF7FDE9CFDC01F7
:1024200016964D915C91E417F50714F7AF0117DF8D
:10243000DFCF16964D915C91DA01A61BB70BBD015B
:10244000621B730BD0CFFC0177FD64C08085918542
:10245000681779070CF05EC057FD5CC082859385D4
:10246000481759070CF056C086898230B1F0833086
:1024700029F1813041F484819581841B950BAB0156
:10248000BC01615071092130310509F108F443C0E4
:102490002230310509F463C0089584819581DC01FF
:1024A000A61BB70BBD016150710986819781DC01C4
:1024B000A41BB50BAD0141505109E5CF8681978131
:1024C000861B970BBA01AC0141505109DCCFCA0100
:1024D00057FD0796A3E095958795AA95E1F7A48106
:1024E000B5818A9F90018B9F300D9A9F300D1124EA
:1024F000620F731F078CF0A1E02DE60FF71F4770E6
:10250000552721E030E001C0220F4A95EAF780818B
:10251000822B80830895CA0157FD079633E0959575
:1025200087953A95E1F7A481B5818A9F90018B9FA9
:10253000300D9A9F300D1124620F731F078CF0A18C
:10254000E02DE60FF71F4770552781E090E001C0AE
:10255000880F4A95EAF7809590818923DACFCA01DE
:1025600057FD079623E0959587952A95E1F7A48175
:10257000B5818A9F90018B9F300D9A9F300D112459
:10258000620F731F078CF0A1E02DE60FF71F477055
:10259000552721E030E001C0220F4A95EAF78081FB
:1025A0008227B7CF61E008960C94E608089590E082
:1025B00080E00895FC018285882331F012868085B1
:1025C000882311F081858FBF0895FC0180858823C1
:1025D00019F08FB78187F89481E082876093400972
:1025E000709341090895CF93DF93FC018781811196
:1025F00006C01086128680E8818781E087838091FB
:10260000E505887F9681892B8093E50584818C314F
:1026100090F490E0DC01AE5EBD492C912F3F59F063
:10262000825D9D49EC01A881D0E2AD9FD0011124CB
:10263000BC5F11962C9383818C3188F490E0FC016F
:10264000EE5EFD4920812F3F51F0825D9D49DC0106
:10265000EC91B0E2EB9FF0011124FC5F218390919B
:102660003564809136649093400980934109DF91ED
:10267000CF91089520916F6530917065C9010796DB
:1026800097FD079623E0959587952A95E1F7209188
:102690006D6530916E65829FA001839F500D929F62
:1026A000500D112470E060E08091886590918965FB
:1026B0000C94CD270F931F93CF93DF938C3108F0A9
:1026C000B2C090E0DC01AE5EBD492C912F3F09F411
:1026D000AAC08C01025D1D49E801E881D0E2ED9FAE
:1026E000F0011124FC5F611132C026833081232365
:1026F000AC014A505E49211111C0EA01288130978E
:1027000079F1283068F57096E20FF11D3FB7F89423
:102710002081611128C0277F20833FBFFA013081CB
:102720003F3F09F480C0E80128813630F0F4309151
:10273000E7053770231319C0EC91E53008F0EE0F70
:102740008091010AE095E823E093010A6CC06430AF
:1027500029F43481278364816223C8CF2583C6CFBF
:10276000F0E0E0E0D3CF2860D7CF8A549E49FC0147
:10277000808186FF42C09091E9059770482F50E014
:102780004F7B94171506C9F5EC918091920B9E2F03
:10279000E03110F49295907F892309F444C0C0E29F
:1027A0002C9F900111243C5FE83008F052C0205F5C
:1027B0003F4FE20FF32FF11D4FB7F8949091800B2C
:1027C0009E7F9093800B90918E0B90FFFCCF209179
:1027D000920B90E08095909530E08223932328ED32
:1027E00024BF8093920B8091800B81608093800B3B
:1027F00080818F7780834FBF16C085FF12C030E184
:10280000839FF0011124F75F91819770973059F4FD
:10281000EC91853268F4803298F4803109F48DCFE0
:1028200002C08111F5CFDF91CF911F910F910895D3
:10283000803409F4AACF8038B1F71092A006F3CF04
:1028400090E1899FF0011124F75F81818F7E818360
:10285000EACFF0E0E0E0B0CFCF93DF93EC018B85DF
:102860008F3F11F061E026DF88819981009719F090
:10287000DF91CF919FCEDF91CF910895CF93DF93DA
:10288000EC0188819981009729F0EA81FB816081C0
:1028900071819BDE8B858F3F21F060E0DF91CF91CE
:1028A00009CFDF91CF9108958F929F92AF92BF92FF
:1028B000CF92DF92EF92FF920F931F93CF93DF930C
:1028C0007C014B016A01B22EA32ED8DFE401C80CB3
:1028D000D91CCC15DD0569F4CB2DDA2D0C0F1D1F8D
:1028E000C017D10759F06FEFC7010E94A80989935B
:1028F000F7CF6991C7010E94A809EBCFC701ACDFF0
:1029000081E0DF91CF911F910F91FF90EF90DF90C9
:10291000CF90BF90AF909F908F9008958F929F928D
:10292000AF92BF92CF92DF92EF92FF920F931F93DD
:10293000CF93DF937C01B62EA72E6A0149019EDF5B
:10294000E401080D191DC017D10761F4CB2DDA2D54
:10295000CC0EDD1ECC15DD0551F06991C7010E943A
:10296000A809F8CF6991C7010E94A809ECCFC70157
:1029700073DF81E0DF91CF911F910F91FF90EF9076
:10298000DF90CF90BF90AF909F908F900895483E7A
:1029900023E052076105710528F0FC01228121FD29
:1029A0000C948E0881E00895DC0112962C91129708
:1029B000226012962C931297ED91FC91119721E0D1
:1029C0002383258312962C9121FF06C040EA56E806
:1029D00061E070E00C948E080895660FFC01648736
:1029E00015860895EF92FF920F931F93CF937C016A
:1029F000C62F8091866590918765009709F44EC037
:102A000060918A65EADF8091866590918765DC0137
:102A1000ED91FC910190F081E02D60E00995870136
:102A2000EE24E394F12CC1508091866590918765E6
:102A3000CF3F71F1B2E8EB16F104B8F0B3DD60916D
:102A40008A658091866590918765C7DF80918665EC
:102A500090918765DC01ED91FC910190F081E02D72
:102A600060E00995EE24E394F12C809186659091C5
:102A70008765F8016491DC01ED91FC910190F08192
:102A8000E02D0995BFEFEB1AFB0A0F5F1F4FCBCF6D
:102A9000CF911F910F91FF90EF9084CDE0919665BB
:102AA000F0919765908180919C65809589238083C2
:102AB0008701C15008F438C0F801849120918465E1
:102AC00030918565232B29F00E943D060F5F1F4F33
:102AD000F0CF28E030E040E8E0919265F091936516
:102AE00090919A65582F5423D9F05081952B90835B
:102AF000E0919465F0919565908150919B65952B3F
:102B00009083E0919465F0919565508190919B65DB
:102B1000909595239083469521503109E9F6D6CFBB
:102B2000508190959523E3CFCF911F910F91FF9006
:102B3000EF900895CF92DF92EF92FF920F931F9341
:102B4000CF93DF93CDB7DEB76797CDBFDEBF0091E0
:102B500037641091386409831A831B821C8291E0C8
:102B60009C87282F30E029873A871D869B87C62EB1
:102B7000D12CF12CE12CCA8ADB8AEC8AFD8A6E8783
:102B80008E8B1F8A01151105A1F1D80114968D9124
:102B90009C91029768F480E06796CDBFDEBFDF911D
:102BA000CF911F910F91FF90EF90DF90CF900895FC
:102BB000F80160818181928110DFD80111968D9199
:102BC0009C91DC01ED91FC910280F381E02D41E0CC
:102BD00050E0BE016A5E7F4F09950197E1F621E062
:102BE00041E050E0BE01625F7F4FC8010E94660A6B
:102BF000D3CFAD81BE81109771F218968C91189742
:102C0000882349F21696ED91FC911797309719F2A7
:102C100001E010E09E01225F3F4F41E0BE016A5E8D
:102C20007F4F19968D919C910995B6CFAF92BF9227
:102C3000DF92EF92FF920F931F93CF93DF93CDB765
:102C4000DEB76797CDBFDEBFE0903764F0903864A1
:102C50001A8A1B8A1C8A1D8AE982FA821B821C82BC
:102C600091E09C87282F30E029873A871D869B8733
:102C70008E8B1F8AE114F10409F4AAC0D7011496BF
:102C80008D919C911597892B09F4C0C06C91119678
:102C90008D919C91A2DE20E041E050E0BE016A5E91
:102CA0007F4FC7010E94660A882309F4AFC0F8E08D
:102CB000DF2EF7014481558121E030E041155105B7
:102CC00011F430E020E0D7011196AD90BC9012973E
:102CD0008C91880FF501848717860084F185E02D9B
:102CE0009581937000E0A1F08160878370E060E0DF
:102CF00080E000E09581A92FA3706F5F7F4F613C5A
:102D00001DE5710718F493FF1CC0D582F5010687F5
:102D100010E00217130709F079C090E080E08017F7
:102D2000910780F5D70111968D919C91DC01ED9171
:102D3000FC910284F385E02D09958E8781E090E077
:102D4000EECF8823B9F0A23009F7848397FF16C02D
:102D5000023870F46085C501800F911D89569F4F20
:102D6000DC016C930F5F4115510581F270E060E06A
:102D700087E0C0CFA23009F0BDCFE8CF96FFBACF31
:102D800083E0B8CF012B09F494CF4B8550E0FD844C
:102D9000FE0131965F0130E020E080E090E0DC0150
:102DA000BF0124173507ACF5BA2FA92F982F882714
:102DB000F1103CC08A01021B130B060F171FF8010C
:102DC0001485812B2F5F3F4FFFEFAF1ABF0AE9CF6A
:102DD000AD81BE811097D1F018968C9118978823F9
:102DE000A9F01496ED91FC911597309779F001E0D8
:102DF00010E09E01225F3F4F41E0BE016A5E7F4FBF
:102E000019968D919C9109958111BFCF8FEF9FEFFE
:102E1000DC016796CDBFDEBFDF91CF911F910F918F
:102E2000FF90EF90DF90BF90AF900895F50115856A
:102E3000C8CFCF93DF93EC018B81882371F0688139
:102E400089819A81CADD89819A81ACDB91E0811107
:102E500090E0892FDF91CF91089589819A81FC01BB
:102E6000228521FD04C022FD02C008969DDD81E07F
:102E70008B83CE01DEDF982F8111E1CFEACF1F9344
:102E8000CF93DF93EC018D8D9E8D0097E9F0162F87
:102E900069A1A3DD8D8D9E8DDC01ED91FC910190EA
:102EA000F081E02D60E009958D8D9E8DDC01ED9126
:102EB000FC910190F081E02D612F09958D8D9E8D03
:102EC000DF91CF911F916ECBADA5BEA59C918BA933
:102ED000809589238C938B8D9C8D892B31F0862F47
:102EE000DF91CF911F910C943D0628E030E080E8FF
:102EF000A9A5BAA599A9462F4823C1F04C91942BB6
:102F00009C93ABA5BCA59C914AA9942B9C93ABA583
:102F1000BCA54C919AA9909594239C938695215099
:102F2000310931F7DF91CF911F9108954C91909520
:102F30009423E6CF1F93CF93DF93EC01162F8D8D53
:102F40009E8D0097C1F04DA95EA96FA978AD089636
:102F50001EDD66EA111167EACE0191DF8D8D9E8D2F
:102F60000097C1F049AD5AAD6BAD7CAD0896DF91CD
:102F7000CF911F910CCD8B8D9C8D009719F06EAD6C
:102F80007FAD23DBEFA5F8A990818CA980958923DB
:102F90008083DFCFEFA5F8A980819CA9892B80834E
:102FA0008B8D9C8D009721F0DF91CF911F9102CBEB
:102FB000DF91CF911F910895FC0101900020E9F766
:102FC0003197AF01481B590BBC0187E993E60C947C
:102FD00079070F931F93CF93DF938C01D0E0C0E06C
:102FE000F801EC0FFD1F6491662341F087E993E639
:102FF0000E942E08892B11F02196F2CF8CEE92E6DA
:10300000DBDF8C0F9D1FDF91CF911F910F910895F2
:10301000CF93DF93D1DFEC018CEE92E6CDDF8C0F06
:103020009D1FDF91CF9108950E94C927EF93FF93D1
:10303000E3E9F3E68F938FB78F9380818F5F80836F
:1030400081818F4F818382818F4F828383818F4FD4
:10305000838381E08093260B8F918FBF8F91FF91A7
:10306000EF911895EF93FF93F898E7E9F3E60BC01B
:10307000EF93FF93F898E7E9F3E634C0EF93FF93FB
:10308000E7E9F3E65FC02F932FB72F938F939F93BA
:10309000AF93BF936894CF93DF9320E0C085D8E0CF
:1030A0009289DF01A90FB21FAD5ABF4F8C9120E466
:1030B0002C838A839F5F9F738D812189291302C08E
:1030C0008F7D8D83928BDF91CF9116F00C942D081C
:1030D000BF91AF919F918F912F912FBF2F91FF9112
:1030E000EF9118952F932FB72F933F938F939F9323
:1030F000CF93DF93C085D8E02E812F7E2E838981E8
:1031000098818674880F3685382B82FD0DC0C7855F
:1031100081E08C0F8F732089281791F0CE0FDF2F5D
:1031200020E0D21F9B8B87873687DF91CF919F91BD
:103130008F913F912F912FBF2F91FF91EF91189574
:103140003064F2CF8F938FB78F939F93CF93DF939A
:10315000C085D8E09D8188818C8187FDFCCF9F7BD5
:1031600090689D83DF91CF919F918F918FBF8F91B9
:10317000FF91EF9118951F920F920FB60F921124A5
:103180001F932F933F934F935F936F937F938F93EF
:103190009F93AF93BF93CF93DF93EF93FF93C8E5D4
:1031A000D4E6E881F981838586FF56C080FF41C05F
:1031B000158581FF38C08E81882359F080910A637C
:1031C00080935000EB85FC85309719F08E8190E05C
:1031D00009951C831D821886E985FA85309709F0C8
:1031E00009958D81882319F183E090915000909387
:1031F0000A63917090935000E881F9818287FF9172
:10320000EF91DF91CF91BF91AF919F918F917F917E
:103210006F915F914F913F912F911F910F900FBE32
:103220000F901F9018951C831E821F82DDCF86E0B1
:10323000DCCF80910A6380935000EB85FC8530974A
:1032400029F08E81882311F090E009951E821D825D
:103250001F82188682E0D0CF87FF31C081FF1EC059
:10326000887139F08A8183FF04C01D82877F8A8339
:10327000F1CF8B818F5F8B838A8188608A83A88559
:103280008D81A81738F7AC0FBD2FB11D1D968C91FD
:10329000858788858F5F888783E0AECF8585EE81BF
:1032A000E23868F4EC0FFD2FF11DE157FF4F8083EA
:1032B0008E818F5F8E83823878F386E09DCF80E0A9
:1032C0009BCFFC0140E05BE167EB70E090E09F5F2B
:1032D000963011F497E00BC0769567955795479512
:1032E000413089E058078DE36807710580F781E078
:1032F000982784E0818380E1989F900111242071B8
:1033000096709162922B90830895CF931092996357
:1033100010929A6388EE93E0A0E0B0E080939B6304
:1033200090939C63A0939D63B0939E6326ED31E6DA
:10333000209397633093986320E038E020939F6355
:103340003093A06329EF3BE02093A1633093A26305
:1033500025E02093A3631092A4631092A5631092BA
:103360005264109253648093546490935564A09374
:103370005664B093576488EE91E6809350649093BE
:10338000516480E099E0809358649093596485E398
:1033900094E697DF80E499E080932A6490932B640D
:1033A00084E080932D6486E080932E6410923064D4
:1033B0001092316410926B6510926C6520E830E0D9
:1033C00020936D6530936E6580E490E080936F6527
:1033D00090937065209371653093726580937365E7
:1033E0009093746510927F65109275651092766562
:1033F0001092776510927865C1E0C0937E65C093A6
:103400007D658FEF9FEF80937B6590937C658093C4
:10341000796590937A65C09380651092816510926A
:103420008265109283658EE492E68093696590933D
:103430006A65109284651092856580E594E68093B4
:1034400086659093876510928865109289658FEFE5
:1034500080938D6580938E6580938F658093906552
:103460008093916580E89AE1A6E0B0E080939E6544
:1034700090939F65A093A065B093A16580EA96E8BC
:10348000A1E0B0E08093A2659093A365A093A465AA
:10349000B093A56587EA95E614DF10923A6482E35B
:1034A00090E080933F649093406410924264109245
:1034B000496410924A6410924B6410924C64C09319
:1034C0004864C09345641092466482E080934764E8
:1034D00088E190E080933D6490933E640E94A4262E
:1034E0008093436490934464009739F128E1FC0190
:1034F00011922A95E9F788E090E080933B649093DD
:103500003C648BE08093416480913A64882331F07D
:1035100088E08093410460E08BE0CCD884E494E0C0
:1035200080934D6490934E6488E080934F64109232
:10353000376410923864CF91089510923D641092D0
:103540003E6410923B6410923C64DBCFCF93DF93D8
:10355000CDB7DEB72C97CDBFDEBF88ED94E284BF38
:103560009093680021E02093030A9EEF9093260A2F
:103570009093270A8BE08093000A85E08093E7050B
:103580001092E80537E03093010B90930C0B1092EA
:103590000D0B8093000B3093110B90931C0B10922A
:1035A0001D0B8093100B4FEF5FE04093AA0B5093DD
:1035B000AB0B90E89093820B1092810B4BEF53E092
:1035C0004093AE0B5093AF0B91E79093800B10920A
:1035D000E90510921563109217639AE090931D63AA
:1035E00090E4909318639093196392E090931B6317
:1035F00030E630931A6380931C6320931663909196
:10360000B000987F95609093B000809302069EE092
:1036100090930506309303068093000682E597E0B9
:1036200080930B6390930C6386EA97E08093126318
:10363000909313638FED9EE280932C0B90932D0B50
:103640002093250B1092210B13E01093200B7894FC
:1036500080E28093A10461E089E12CD88091A3638A
:10366000843008F46BC11093A4638091A56380FF3C
:1036700014C087E993E60E947A08E0919F63F09175
:10368000A063868116828581158280E4848380917F
:10369000A7638093A6631092A5636FB7F894E09137
:1036A0009F63F091A063168233E0378381E493E057
:1036B00080879187148680E8858380EC86832091BB
:1036C000A4637091A3638091A1639091A263FC01B4
:1036D000239FE00DF11D112445915491271708F007
:1036E0003FC0252F30E05C3180F4F901EE5EFD49EA
:1036F000A081AF3F51F0225D3D49F901308120E2C8
:10370000329FF0011124FC5FA183E1E0E50F2E2F31
:1037100030E0EC3128F5F901EE5EFD4910811F3FE4
:10372000F9F0F901E25DFD49A081E0E2AE9FD00130
:103730001124BC5F2A503E49F9010081F0E0E0E02D
:10374000083030F49D01205F3F4FF901E00FF11D7B
:103750003FB7F89412961C932081286020833FBFC6
:10376000FC0123E0729FE00DF11D11243296E491DB
:103770008091E205E095E823E42BE093E2056FBF3A
:103780008CE69AE026DC86E792E642DC85E28093CE
:1037900039648091376490913864009711F00E94E9
:1037A000402786E090E00E94A4268C018091396435
:1037B000D8018C9380E594E611968D939C93129793
:1037C00013961C92139780E290E014968D939C932D
:1037D0001597009337641093386480915A6481FD83
:1037E00005C082FD03C088E594E6DED881E0F801DB
:1037F0008383C8011EDB182F882309F19E012F5FE8
:103800003F4F79018BE0D9011D928A95E9F78FEF3F
:103810008A830091376410913864F801848195811E
:103820000A9708F48EC0608181819281D6D821E008
:103830004AE050E0B701C8010E94660A182F80EAEA
:1038400092E6E6DB80EC92E6B7DB612F87E993E650
:103850000E942E088CEE92E6AFDB10E000E0CC2454
:10386000C394D12C80E0E2D97601002E01C0EE0C89
:103870000A94EAF76E2D6095682380E05BD989E0B1
:10388000D5D9682F6E2989E055D90F5F1F4F0830B1
:10389000110541F78AE294E60E94F31284E08093D6
:1038A000410461E08AE00E945A1380914164282F0C
:1038B00030E08C3180F4F901EE5EFD4990819F3F4C
:1038C00051F0225D3D49D901EC91B0E2EB9FF0014E
:1038D0001124FC5F918360E00E945A1381E0809381
:1038E0003A648091886590918965892B61F10E9485
:1038F0003A1380916F659091706560916D657091DC
:103900006E65813291050CF044C0AC014052510902
:1039100057FF02C04F5F5F4F559547956357710939
:1039200077FF02C06F5F7F4F7595679500E2E02ECD
:10393000F12C03E710E022EB35E043C01092A463C2
:1039400094CE10E07CCF20916F6530917065C901F5
:10395000079697FD079643E0959587954A95E1F779
:1039600020916D6530916E65FC01E29FC001E39F7F
:10397000900DF29F900D11240E94A42680938865DB
:1039800090938965892B09F0B2CF82E59AE021DB1B
:10399000FFCFAC014054510957FF02C04F5F5F4F4A
:1039A000559547956255710977FF02C06F5F7F4F4C
:1039B0007595679520E4E22EF12C02E510E022E9EE
:1039C00037E089E695E60E94650F82E080938B657B
:1039D000E0918665F0918765309709F4CBC18DE35E
:1039E00080938A659F01285F3F4F928591FD05C0B6
:1039F00092FD03C0C9010E94D4148091916587FD96
:103A00002FC0282F082E000C330B8C3184F4F901C1
:103A1000EE5EFD4990819F3F51F0225D3D49D90105
:103A2000EC91B0E2EB9FF0011124FC5F918361E027
:103A30000E945A1361E070E080E090E00E9423074A
:103A400060E0809191650E945A136AE070E080E026
:103A500090E00E94230761E0809191650E945A13D3
:103A60008091866590918765009709F485C24091A1
:103A70009E6550919F656091A0657091A1650896C3
:103A80000E94C71464E08EEA95E00E94F2146091EF
:103A90006F65615089E695E6F2D964E08AEA95E0BF
:103AA0000E94F21480918B6560E1813009F064E13D
:103AB00089E695E6E4D964E086EA95E00E94F2148E
:103AC0008FE88093A66580916D6590916E658038D2
:103AD000910509F06AC280916F659091706580349C
:103AE000910509F072C280918B65813009F05BC24B
:103AF0008FE98093A66512E16AED89E695E6BFD964
:103B0000612F89E695E6BBD961E889E695E6B7D9E4
:103B10006091A66589E695E6B2D969ED89E695E6F4
:103B2000AED980918B6562E2813009F061EF89E660
:103B300095E6A5D966E080EA95E00E94F2148091AE
:103B4000866590918765009709F443C24091A2650C
:103B50005091A3656091A4657091A56508960E9437
:103B6000C714AEE12A2EA3E63A2EB9E04B2E512C13
:103B7000612C712CDD24D394F3E0CF2E0E944607F4
:103B800000910D6310910E6320910F6330911063CB
:103B9000409111634B015C01801A910AA20AB30A99
:103BA00095018401442309F427C205361105210536
:103BB000310570F060930D6370930E6380930F6313
:103BC000909310631092116361E089E10E945A138F
:103BD0000E94460700917263109173632091746391
:103BE000309175634B015C01801A910AA20AB30AF5
:103BF00095018401013D17402105310508F470C08D
:103C0000609372637093736380937463909375632E
:103C100080916E6390916F63A0917063B0917163B6
:103C20000196A11DB11D80936E6390936F63A09365
:103C30007063B0937163E0911263F09113638AE053
:103C40000995ECE0F0E68FEF9085913009F48081E2
:103C50003196A4E1B0E6AE17BF07B1F7D092166374
:103C60008F3F09F480E080930106809171638F9308
:103C7000809170638F9380916F638F9380916E6357
:103C80008F93EEECF2E6FF93EF933F922F920E9418
:103C9000D4278EE193E690D983E10E94B7079F93E2
:103CA0008F93EDEDAE2EE2E6BE2EBF92AF923F9225
:103CB0002F920E94D4278EE193E67ED982E10E9462
:103CC000B7079F938F934FEE52E65F934F933F92C8
:103CD0002F920E94D4278EE193E66ED9CDBFDEBF2E
:103CE0000E944607009178631091796320917A636E
:103CF00030917B634B015C01801A910AA20AB30ADE
:103D000095018401063211052105310508F49CC195
:103D1000609378637093796380937A6390937B6305
:103D20001091766380917763882309F477C11092AC
:103D30007763183088F489E00E94161661E070E01D
:103D400001C0660F1A95EAF7682B89E00E949A1560
:103D500080917763811178C1809176639091006042
:103D6000992309F4D6C28F5F853008F067C180932C
:103D700076636AC140918F65842F90E04C3188F45E
:103D8000DC01AE5EBD492C912F3F59F0825D9D490B
:103D9000DC019C91E0E29E9FD0011124BC5F119652
:103DA0002C93A09190658A2F90E0AC3190F49C0107
:103DB0002E5E3D49F90120812F3F59F0825D9D49DA
:103DC000FC018081F0E28F9FC00111249C5FFC0107
:103DD00021834C3108F04DC0842F042E000C990B28
:103DE000825D9D49FC018081873008F042C0F0E28D
:103DF0008F9FC00111249C5F0496809396659093D9
:103E000097658FEF4C3130F4E42F440FFF0BEE5EDB
:103E1000FD49808180939C65AC3170F5EA2F0A2EB4
:103E2000000CFF0BE25DFD49E081E73028F520E260
:103E3000E29FF0011124FC5FCF0104968093986506
:103E4000909399658FEFAC3130F40A2E000CBB0BC8
:103E5000AE5EBD498C9180939D659481892B84834E
:103E60008091846590918565009749F00E94F312D6
:103E7000C4CD90E080E0C0CFF0E0E0E0DDCF409145
:103E80008D65842F90E04C3188F4DC01AE5EBD4935
:103E90002C912F3F59F0825D9D49DC019C91E0E21D
:103EA0009E9FD0011124BC5F11962C93A0918E652A
:103EB0008A2F90E0AC3190F49C012E5E3D49F901CF
:103EC00020812F3F59F0825D9D49FC018081F0E205
:103ED0008F9FC00111249C5FFC0121834C3108F0AD
:103EE00045C0842F042E000C990B825D9D49FC0176
:103EF00080818730D8F5F0E28F9FC00111249C5F4C
:103F0000049680939265909393658FEF4C3130F4D3
:103F1000E42F440FFF0BEE5EFD49808180939A658C
:103F2000AC3138F5EA2F0A2E000CFF0BE25DFD499B
:103F3000E081E730F0F420E2E29FF0011124FC5F21
:103F4000CF01049680939465909395658FEFAC3183
:103F500030F40A2E000CBB0BAE5EBD498C918093F1
:103F60009B65948180958923848347CD90E080E090
:103F7000C7CFF0E0E0E0E4CF809184659091856563
:103F8000009731F06091A7657091A8650E94E512D5
:103F9000E0919865F0919965908180919D658095FB
:103FA000892380836FCD8FECA4CD8036910569F491
:103FB00080916F6590917065409739F480918B6521
:103FC000813029F480E18093A66512E095CD8FEAD7
:103FD000FACFE0919865F0919965808190919D6507
:103FE000892B80838091846590918565009709F481
:103FF000B8CD0E94DA12B5CD053813402105310540
:1040000008F4E6CD60930D6370930E6380930F63A5
:1040100090931063D092116360E0D7CDD092776314
:10402000183090F489E00E94161661E070E001C03B
:10403000660F1A95EAF76095682387CE74E0972E8D
:1040400090927663109200600E94460700917E6312
:1040500010917F6320918063309181634B015C01FB
:10406000801A910AA20AB30A95018401043D110540
:104070002105310508F477C060937E6370937F63F8
:10408000809380639093816340913D6450913E643E
:1040900070E060E080914364909144647ED70E9418
:1040A0009E0600917D6310917C63212F30E080910A
:1040B0003B6490913C642817390708F046C044E0FF
:1040C000049FF0011124E45EFF4980819181A28167
:1040D000B381AD0166277727F42F892E9A2EAB2E58
:1040E000BB248C86F82EE0914264EE2361F04E9F53
:1040F000B0011124F72FE89D400111249C86E89F10
:10410000A0011124F52E60914864409143645091C0
:104110004464E09045646E1104C19A011C9D200D19
:10412000311D1124A0914564A20FB32FB11DFC9342
:10413000E0914664E20FF32FF11D5C8550834091BE
:104140004764240F311DD901FC920E949E061F5F17
:10415000183008F001C110937C630F5F033008F042
:10416000FEC000937D638091876381110EC0209112
:10417000716530917265C901C49797FD0196959557
:10418000879580938663D09287630E94460700914B
:1041900082631091836320918463309185634B0126
:1041A0005C01801A910AA20AB30A950184010636BD
:1041B00011052105310508F42EC1609382637093C7
:1041C000836380938463909385630E943A13409144
:1041D0000160042E000C550B60918663062E000CC6
:1041E000770BE3E3EE2EF12C04E310E024E93AE050
:1041F00089E695E60E94650F8091866590918765B6
:10420000009709F4AFC040919E6550919F65609101
:10421000A0657091A16508960E94C71465E08FE8BB
:104220009AE00E94F21460916D65615089E695E60E
:104230000E943F1720916F6530917065C901079604
:1042400097FD079653E0959587955A95E1F720914C
:104250006D6530916E65829F7001839FF00C929F17
:10426000F00C112400918865109189658091866514
:1042700090918765E00EF11E009709F412C16091DC
:104280008A650E94ED148091866590918765DC01B6
:10429000ED91FC910190F081E02D60E40995AA2454
:1042A000A394B12C8091866590918765E016F10604
:1042B00009F46FC0B2E8AB16B104C8F00E94D21284
:1042C00060918A6580918665909187650E94ED1462
:1042D0008091866590918765DC01ED91FC9101905C
:1042E000F081E02D60E40995AA24A394B12C80917B
:1042F000866590918765F80161918F01DC01ED91F0
:10430000FC910190F081E02D0995BFEFAB1ABB0A3B
:10431000C9CF815087FF2BCD10927663D092006079
:1043200093CE220F331F220F331F240F351F8B2FE5
:104330009927AA27BB27EE2351F0AE2EB12CA89EB9
:10434000A001A99E500DB89E500D1124852FD901B2
:10435000A60FB11D8C93E6CE10927C63FECE109218
:104360007D6301CF8091846590918565009731F0E0
:104370006091A7657091A8650E94E512E09198652B
:10438000F0919965908180919D65809589238083C6
:1043900045CF0E94D21280918665909187650097E3
:1043A00009F4C3C04091A2655091A3656091A465D2
:1043B0007091A56508960E94C714809101608E5F78
:1043C00080930160082E000C990B20917365309149
:1043D000746582179307FCF08DEC80930160209147
:1043E000716530917265C901C49797FD01969595E5
:1043F0008795809386633CD1A3019201FDD36530FC
:104400007105810591050CF4A3C091EF809186633D
:10441000890F809386630E94460700918F631091F5
:10442000906320919163309192634B015C01801AFB
:10443000910AA20AB30A95018401013D17402105A2
:10444000310508F49BCB60938F63709390638093E6
:1044500091639093926382E093E60E94081888E249
:10446000A82E80E6B82E98EBE92E91E6F92ED5011C
:104470000D911C91185F60E08AE00E945A13812F11
:1044800080630E943D06802F0E943D0661E08AE025
:104490000E945A13B8E0AB0EB11CEA14FB0439F7C2
:1044A00069CBE0919665F0919765808190919C65CC
:1044B000892B8083E016F10609F46DCFF801819114
:1044C0008F012091846530918565232B19F00E941E
:1044D0003D06F0CF28E030E040E8E0919265F091B1
:1044E000936590919A65542F5823D9F05081952B5C
:1044F0009083E0919465F0919565908150919B65D2
:10450000952B9083E0919465F09195655081909101
:104510009B65909595239083469521503109E9F646
:10452000C9CF508190959523E3CFE0919865F091A4
:104530009965808190919D65892B808380918465A8
:1045400090918565009709F438CF0E94DA1235CF33
:104550009FE05CCFCF93DF9380914364909144645C
:10456000009709F08DD4809141648C3118F590E06A
:10457000FC01EE5EFD4920812F3FE1F0FC01E25D90
:10458000FD49A08130E2A39FD0011124BC5F8A5075
:104590009E49EC01E881E830E0F4CD014096E80F57
:1045A000F92FF11D9FB7F89412962C938081877F85
:1045B00080839FBF8EE492E68093696590936A65DD
:1045C0008091886590918965009731F0DF91CF9156
:1045D00057C4F0E0E0E0E6CFDF91CF9108958F92ED
:1045E0009F92AF92BF92CF92DF92EF92FF92CF93C2
:1045F000DF93EC01688179818A819B816115710566
:104600008105910521F464E279ED8BE597E02DE1D8
:1046100033EF41E050E0F0D249015A019B01AC0177
:10462000A7EAB1E405D36B017C01ACEEB4EFA501C0
:1046300094010AD3C60ED71EE81EF91EF7FE06C067
:1046400081E0C81AD108E10880E8F80AC882D98256
:10465000EA82FB82C701B6019F77DF91CF91FF907D
:10466000EF90DF90CF90BF90AF909F908F90089584
:104670008F929F92AF92BF92CF92DF92EF92FF9272
:104680006091026070910360809104609091056078
:10469000611571058105910521F464E279ED8BE5E1
:1046A00097E02DE133EF41E050E0A6D249015A01F5
:1046B0009B01AC01A7EAB1E4BBD26B017C01ACEE7B
:1046C000B4EFA5019401C0D2C60ED71EE81EF91E94
:1046D000F7FE06C081E0C81AD108E10880E8F80AB0
:1046E000C0920260D0920360E0920460F092056094
:1046F000C701B6019F77FF90EF90DF90CF90BF90FA
:10470000AF909F908F9008956093026070930360C4
:1047100080930460909305600895ABE0B0E0E2E917
:10472000F3E296C27C013B018A01FC0116821782EA
:10473000838181FFBAC1CE0101965C01F7019381AB
:10474000F30193FD859193FF81913F01882309F443
:1047500049C1853239F493FD859193FF81913F01E1
:10476000853221F4B70190E0B9D1E8CF912C212C0A
:10477000312CFFE1F31538F08B3211F190F48032D7
:1047800009F1833229F137FC3CC020ED280F2A3093
:1047900050F536FE20C08AE0989E200D1124922EFE
:1047A00006C08D3291F0803371F7689430F8F301D0
:1047B00093FD859193FF81913F018111DACF21C053
:1047C000689431F8689432F8F2CF689433F8EFCFF8
:1047D000689434F8ECCFEAE02E9E200D1124222EAE
:1047E000689435F8E4CF8E3229F436FCFBC0689427
:1047F00036F8DDCF8C3619F4689437F8D8CF883680
:10480000B1F2982F9F7D95549330D8F0833691F173
:104810008337B1F1833509F05EC02801F2E04F0E15
:10482000511CF801C080D180692D70E036FC02C0B7
:104830006FEF7FEFC6013CD14C01689437F88201DD
:104840000AC00C5F1F4FFFE3F98388248394912CE7
:104850006501E89437F833FE2AC0522C8114910484
:1048600059F5552009F46ACFB70180E290E036D1BE
:104870005A94F7CFF801808189830E5F1F4FE5CFEF
:104880002801F2E04F0E511CF801C080D180692D43
:1048900070E036FC02C06FEF7FEFC60114D14C010F
:1048A0008201D7CFB70180E290E018D12A94281472
:1048B000190409F0B8F7D1CFF60137FC859137FE1E
:1048C00081916F01B70190E009D151105A94F1E044
:1048D0008F1A9108C3CF843619F0893609F073C056
:1048E000F80137FE67C060817181828193810C5F1E
:1048F0001F4FF32DFF763F2E97FF09C090958095AF
:10490000709561957F4F8F4F9F4F689437F82AE0DD
:1049100030E0A50113D1C82ECA188C2C432C36FECA
:104920000CC0E89440F8C91440F434FE05C032FCD1
:1049300003C0F32DFE7E4F2E892C44FE90C0FE0155
:10494000EC0DF11D8081803309F082C0242D297E79
:10495000422E842D8870582E43FC8FC040FE89C0A3
:104960009C2C821418F42C0C922C981844FE8BC0AA
:10497000B70180E390E0B2D042FE08C088E790E043
:1049800041FE02C088E590E0B701A8D0C91408F440
:1049900086C0CA94D12C9FEFC91AD90ACA0CDB1C55
:1049A000F60182916F01B70190E098D0AC14BD047C
:1049B000B9F757CF60817181072E000C880B990BD6
:1049C0000E5F1F4F96CFD32CE894D4F82AE030E046
:1049D000853731F1232D297FD22E8F36F9F040F41F
:1049E0008835A1F0F701868197812B96E2E149C1D4
:1049F000803749F08837B1F7D4FE02C06894D2F806
:104A000020E130E00DC06894D4F8F6CF34FE03C046
:104A1000822F8660D82E20E132E002C028E030E00C
:104A2000F801D7FE0EC060817181828193810C5F95
:104A30001F4FA50183D0C82ECA183D2CE89437F823
:104A40006CCF6081718190E080E00E5F1F4FF1CFED
:104A500042FC02C083947DCF839483947ACF842DCB
:104A6000867809F476CFF6CFB70180E290E036D0B1
:104A700083948214C8F3512C79CF522C5818821485
:104A800008F474CFF8CF842D867809F47FCF8BE2B9
:104A900041FE80E247FC8DE2B70190E076CFB7019E
:104AA00080E390E01BD09A9471CF8FEF9FEF9DCF62
:104AB000FC010590615070400110D8F780959095E9
:104AC0008E0F9F1F0895FC016150704001900110EE
:104AD000D8F7809590958E0F9F1F08950F931F9381
:104AE000CF93DF93182F092FEB018B8181FD09C034
:104AF0001FEF0FEF812F902FDF91CF911F910F911B
:104B0000089582FF14C02E813F818C819D812817DA
:104B100039073CF4E881F981CF01019688839983B4
:104B200010838E819F8101968E839F83E3CFE885DA
:104B3000F985812F0995892BA1F3DACFFA01AA27EC
:104B4000283051F1203181F1E8946F936E7F6E5FD0
:104B50007F4F8F4F9F4FAF4FB1E03ED0B4E03CD07E
:104B6000670F781F891F9A1FA11D680F791F8A1F61
:104B7000911DA11D6A0F711D811D911DA11D20D0C8
:104B800009F468943F912AE0269F11243019305D82
:104B90003193DEF6CF010895462F4770405D419373
:104BA000B3E00FD0C9F7F6CF462F4F70405D4A33C0
:104BB00018F0495D31FD4052419302D0A9F7EACF88
:104BC000B4E0A6959795879577956795BA95C9F7B7
:104BD00000976105710508959B01AC010A2E0694AA
:104BE0005795479537952795BA95C9F7620F731F63
:104BF000841F951FA01D0895052E97FB16F40094A1
:104C00000FD057FD05D055D007FC02D046F408C0A0
:104C100050954095309521953F4F4F4F5F4F0895E8
:104C200090958095709561957F4F8F4F9F4F089518
:104C300062D0A59F900DB49F900DA49F800D911DF3
:104C400011240895B7FFF4CFF3DF821B930B08956F
:104C50002F923F924F925F926F927F928F929F928C
:104C6000AF92BF92CF92DF92EF92FF920F931F937A
:104C7000CF93DF93CDB7DEB7CA1BDB0BCDBFDEBF53
:104C800009942A88398848885F846E847D848C845E
:104C90009B84AA84B984C884DF80EE80FD800C8167
:104CA0001B81AA81B981CE0FD11DCDBFDEBFED0121
:104CB0000895A1E21A2EAA1BBB1BFD010DC0AA1F5D
:104CC000BB1FEE1FFF1FA217B307E407F50720F075
:104CD000A21BB30BE40BF50B661F771F881F991FF0
:104CE0001A9469F760957095809590959B01AC0139
:104CF000BD01CF010895A29FB001B39FC001A39F42
:104D0000700D811D1124911DB29F700D811D112404
:104D1000911D0895AA1BBB1B51E107C0AA1FBB1F11
:104D2000A617B70710F0A61BB70B881F991F5A9537
:104D3000A9F780959095BC01CD010895EE0FFF1F56
:104D40000590F491E02D09940F931F93CF93DF9377
:104D50008230910510F482E090E0E091AB65F09133
:104D6000AC6530E020E0B0E0A0E0309799F4211588
:104D7000310509F44AC0281B390B24303105D8F518
:104D80008A819B816115710589F1FB01828393837F
:104D9000FE0111C0408151810281138148175907DA
:104DA000E0F04817590799F4109761F012960C93A8
:104DB000129713961C933296CF01DF91CF911F91DA
:104DC0000F9108950093AB651093AC65F4CF211556
:104DD000310551F04217530738F0A901DB019A0160
:104DE000BD01DF01F801C1CFEF01F9CF8093AB65C1
:104DF0009093AC65CDCFFE01E20FF31F81939193A9
:104E00002250310928833983D7CF2091A965309169
:104E1000AA65232B41F4209108603091096020930A
:104E2000A9653093AA65209106603091076021152D
:104E3000310541F42DB73EB740910A6050910B60A7
:104E4000241B350BE091A965F091AA65E217F307E1
:104E5000A0F42E1B3F0B2817390778F0AC014E5FEA
:104E60005F4F2417350748F04E0F5F1F4093A96529
:104E70005093AA65819391939FCFF0E0E0E09CCF9F
:104E8000CF93DF930097E9F0FC01329712821382EF
:104E9000A091AB65B091AC65ED0130E020E01097DA
:104EA000A1F420813181820F931F2091A965309157
:104EB000AA652817390709F061C0E093A965F09346
:104EC000AA65DF91CF910895EA01CE17DF07E8F5D3
:104ED0004A815B819E0141155105B1F7E901EA83E1
:104EE000FB8349915991C40FD51FEC17FD0761F45D
:104EF000808191810296840F951FE90188839983AF
:104F0000828193818A839B83F0E0E0E012968D9109
:104F10009C9113970097B9F52D913C911197CD0174
:104F20000296820F931F2091A9653091AA652817D8
:104F3000390739F6309751F51092AB651092AC6590
:104F4000A093A965B093AA65BCCFC283D3834081E7
:104F50005181840F951FC817D90761F44E5F5F4FC9
:104F600088819981480F591F408351838A819B8191
:104F7000828393832115310509F0B0CFE093AB65AF
:104F8000F093AC659ECFFD01DC01C0CF128213828D
:104F9000D7CF81E090E0F89427C0DC0101C06D9389
:104FA00041505040E0F70895AEE0B0E0E9EDF7E29F
:104FB0005DCE0D891E8986E08C8309831A838FEF6D
:104FC0009FE78D839E83AE01475E5F4F6F89788D2B
:104FD000CE010196A2DB2F813885020F131FF80145
:104FE00010822E96E4E05BCE16E0C7E0D6E003C068
:104FF000FE01A4DE2196C830D107D1F7F894FFCF87
:1050000001CD010000000000AD6580000001020339
:105010000405060701020408102040807F000000FC
:10502000007F000000007F00000032006400960056
:10503000C800FA002B015D018E01BF01F0012102C1
:1050400051028102B102E10210033F036E039C038F
:10505000CA03F803250452047E04AA04D5040005FB
:105060002A0554057D05A605CE05F6051D06430651
:1050700069068E06B306D706FA061D073F076007C6
:105080008007A007BE07DC07F807FE07FF07F80741
:10509000DC07BE07A007800760073F071D07FA0669
:1050A000D706B3068E06690643061D06F605CE052D
:1050B000A6057D0554052A050005D504AA047E042D
:1050C00052042504F803CA039C036E033F03100334
:1050D000E102B102810251022102F001BF018E0101
:1050E0005D012B01FA00C800960064003200000048
:1050F000CEFF9CFF6AFF38FF06FFD5FEA3FE72FEBF
:1051000041FE10FEDFFDAFFD7FFD4FFD1FFDF0FCFA
:10511000C1FC92FC64FC36FC08FCDBFBAEFB82FBB2
:1051200056FB2BFB00FBD6FAACFA83FA5AFA32FA9A
:105130000AFAE3F9BDF997F972F94DF929F906F977
:10514000E3F8C1F8A0F880F860F842F824F808F80D
:1051500002F801F808F824F842F860F880F8A0F89E
:10516000C1F8E3F806F929F94DF972F997F9BDF993
:10517000E3F90AFA32FA5AFA83FAACFAD6FA00FBE1
:105180002BFB56FB82FBAEFBDBFB08FC36FC64FC16
:1051900092FCC1FCF0FC1FFD4FFD7FFDAFFDDFFD6C
:1051A00010FE41FE72FEA3FED5FE06FF38FF6AFF29
:1051B0009CFFCEFF00000000202140404040220024
:1051C000000000000000647480004252627200001F
:1051D0000000000000002E087907D3077A080408B1
:1051E000E207F6070000000073098509D7123909A4
:1051F0006D095A094609000102030405060700016A
:105200000203FF010203040506070001020304056F
:105210000607010204081020408001020408FF0272
:105220000408102040800102040810204080000083
:105230000000000000000202020203030303030354
:105240000303050505050505050500000000BB0C69
:105250007907D712D612231247065E0F360F520F68
:10526000460FD60F47068A0A9A179711DE117F0E4E
:10527000620EEA0D8B0D41565231323844443438B7
:105280002043757269736F697479204E616E6F2067
:105290002B204E616E6F204578706C6F72657200C6
:1052A000536574207570204D4350323330303820B0
:1052B0004C454420494F20457870616E646572000A
:1052C0004C454420737461747573203A2000616406
:1052D00063207363616E20256C750D0A00616E6139
:1052E0006C6F6720504437203A2025640D0A006116
:1052F0006E616C6F6720504436203A2025640D0A99
:0A5300000A003E3E20626565700061
:00000001FF
